:100000000C9462000C948A000C948A000C948A0070
:100010000C948A000C948A000C948A000C948A0038
:100020000C948A000C948A000C948A000C948A0028
:100030000C948A000C948A000C948A000C948A0018
:100040000C94D7040C948A000C94A5040C947F049F
:100050000C948A000C948A000C948A000C948A00F8
:100060000C948A000C948A000000000024002700F1
:100070002A0000000000250028002B0000000000DE
:1000800023002600290004040404040404040202DA
:100090000202020203030303030301020408102007
:1000A0004080010204081020010204081020000012
:1000B0000008000201000003040700000000000027
:1000C0000000210511241FBECFEFD8E0DEBFCDBF59
:1000D00011E0A0E0B1E0E2E0F4E102C005900D9291
:1000E000A634B107D9F722E0A6E4B1E001C01D9221
:1000F000A635B207E1F710E0C2E6D0E004C02197D0
:10010000FE010E94F409C136D107C9F70E945E05BD
:100110000C94FF090C940000E0915501F0915601F8
:100120000190F081E02D682F85E591E009948F9290
:100130009F92AF92BF92CF92DF92EF92FF920F9376
:100140001F93E9EFF1E080E090E0DC01C12CD12CBD
:10015000760188248A94982CA82CB12C01911191B5
:1001600021913191081519052A053B0514F4480120
:100170005901C016D106E206F30614F468017901AC
:10018000800F911FA21FB31F22E0E134F20731F765
:1001900088199909AA09BB09BC01CD016C197D090F
:1001A0008E099F091F910F91FF90EF90DF90CF90E4
:1001B000BF90AF909F908F900895CF92DF92EF9273
:1001C000FF920F931F93CF93DF936C017A018B0102
:1001D000C0E0D0E0CE15DF0589F0D8016D918D012A
:1001E000D601ED91FC910190F081E02DC6010995B9
:1001F000892B11F47E0102C02196ECCFC701DF915B
:10020000CF911F910F91FF90EF90DF90CF900895C5
:10021000089580E090E00895FC01538D448D252FD2
:1002200030E0842F90E0821B930B541710F0CF9690
:10023000089501970895FC01918D828D981761F0C2
:10024000828DDF01A80FB11D5D968C91928D9F5F0D
:100250009F73928F90E008958FEF9FEF0895FC01B8
:10026000918D828D981731F0828DE80FF11D858D6B
:1002700090E008958FEF9FEF0895FC01918D228DFE
:10028000892F90E0805C9F4F821B91098F73992783
:10029000089585E591E00E943D0121E0892B09F454
:1002A00020E0822F0895FC01848DDF01A80FB11D8D
:1002B000A35ABF4F2C91848D90E001968F7399279C
:1002C000848FA689B7892C93A089B1898C91806489
:1002D0008C93938D848D981306C00288F389E02D4A
:1002E00080818F7D80830895EF92FF920F931F93FB
:1002F000CF93DF93EC0181E0888F9B8D8C8D9813D9
:1003000005C0E889F989808185FD24C0F62E0B8D12
:1003100010E00F5F1F4F0F731127E02E8C8DE81236
:100320000CC00FB607FCFACFE889F989808185FFF8
:10033000F5CFCE010E945301F1CF8B8DFE01E80F66
:10034000F11DE35AFF4FF0820B8FEA89FB89808110
:10035000806207C0EE89FF896083E889F98980811E
:100360008064808381E090E0DF91CF911F910F91B5
:10037000FF90EF900895CF93DF93EC01888D882351
:10038000C9F0EA89FB89808185FD05C0A889B98902
:100390008C9186FD0FC00FB607FCF5CF808185FFDD
:1003A000F2CFA889B9898C9185FFEDCFCE010E944B
:1003B0005301E7CFDF91CF91089580E090E0892B42
:1003C00029F00E94490181110C94000008958330A6
:1003D00081F028F4813099F08230A1F008958730BF
:1003E000A9F08830B9F08430D1F4809180008F7DFD
:1003F00003C0809180008F7780938000089584B53A
:100400008F7702C084B58F7D84BD08958091B00040
:100410008F7703C08091B0008F7D8093B0000895E6
:10042000CF93DF93282F30E0F901E255FF4F8491FD
:10043000F901E656FF4FD491F901EA57FF4FC491F5
:10044000CC2391F081110E94E701EC2FF0E0EE0F38
:10045000FF1FE458FF4FA591B491EC91ED2381E08B
:1004600090E021F480E002C080E090E0DF91CF9145
:1004700008951F93CF93DF93282F30E0F901E255C1
:10048000FF4F8491F901E656FF4FD491F901EA57E5
:10049000FF4FC491CC23C9F0162F81110E94E701B0
:1004A000EC2FF0E0EE0FFF1FEE58FF4FA591B49137
:1004B0008FB7F894111105C09C91ED2FE095E923B9
:1004C00002C0EC91ED2BEC938FBFDF91CF911F9188
:1004D0000895CF92DF92EF92FF92CF931092540241
:1004E000C0E0C12CD12C76018091F40190E04796B8
:1004F0002C2F30E082179307ECF061E08091F2013D
:100500000E943902C83178F48091F3010E941002F0
:10051000CC0CDD1CEE1CFF1C882329F08FEFC81AC1
:10052000D80AE80AF80A60E08091F2010E943902D4
:10053000CF5FDACF80E8E8268091490290914A02A5
:100540008131910529F410924A021092490205C0A6
:10055000019690934A0280934902C114D104E104A8
:10056000F104A1F1C091540281E08C0F80935402F8
:10057000E0914902F0914A02EE0FFF1FEE0FFF1FBC
:10058000EE50FE4FC782D086E186F28680915202FD
:100590008823E1F080915002823120F48F5F8093B4
:1005A000500214C00E949700609345027093460267
:1005B0008093470290934802109250021092520288
:1005C00081E080935502CE5FC0935402CF91FF909B
:1005D000EF90DF90CF90089581E0809352021092C7
:1005E00050028091F3010E941002811103C00E9409
:1005F000690202C01092540280915402823089F73D
:100600000895CF93DF9390E0FC01E656FF4F2491CD
:10061000FC01EA57FF4F8491882361F190E0880F35
:10062000991FFC01E859FF4FC591D491FC01EE5888
:10063000FF4FA591B491611109C09FB7F8948881CB
:10064000209582238883EC912E230BC0623061F4C5
:100650009FB7F8943881822F809583238883EC910B
:100660002E2B2C939FBF06C08FB7F894E8812E2BBA
:1006700028838FBFDF91CF910895CF93DF93C2EF8F
:10068000D1E061E088810E94010360E089810E94DD
:10069000010381E08A8360E08881DF91CF910C942F
:1006A00039023FB7F8948091480190914901A09197
:1006B0004A01B0914B0126B5A89B05C02F3F19F008
:1006C0000196A11DB11D3FBFBA2FA92F982F8827D2
:1006D000820F911DA11DB11DBC01CD0142E0660F2D
:1006E000771F881F991F4A95D1F708958F929F927F
:1006F000AF92BF92CF92DF92EF92FF926B017C019B
:100700000E9451034B015C01C114D104E104F104C6
:10071000F1F00E945103DC01CB0188199909AA0963
:10072000BB09883E9340A105B10570F321E0C21AD0
:10073000D108E108F10888EE880E83E0981EA11C1C
:10074000B11CC114D104E104F10419F7DDCFFF900D
:10075000EF90DF90CF90BF90AF909F908F900895D3
:100760008FE00E94100221E0892B09F420E0209301
:100770004601222341F080915001811104C081E0A3
:100780008093500103C02093500120E0822F0895F0
:10079000009769F0FC0101900020E9F73197AF0163
:1007A000481B590BBC0185E591E00C94DD0080E00D
:1007B00090E008958F929F92AF92BF920F931F93F4
:1007C000CF93DF93CDB7DEB7A1970FB6F894DEBF16
:1007D0000FBECDBF19A2423008F44AE08E010F5D72
:1007E0001F4F842E912CA12CB12CA50194010E94A5
:1007F000D209E62FB901CA0101501109EA3014F4F7
:10080000E05D01C0E95CD801EC93232B242B252B60
:1008100061F7C8010E94C803A1960FB6F894DEBF25
:100820000FBECDBFDF91CF911F910F91BF90AF90C1
:100830009F908F900895CF92DF92EF92FF92CF9387
:10084000DF936C01990FEE08FF08F7FE17C08DE2E9
:100850000E948C00EC0166277727CB016C197D097B
:100860008E099F094AE00E94DA038C0F9D1FDF91D9
:10087000CF91FF90EF90DF90CF9008954AE0C701AD
:10088000B601DF91CF91FF90EF90DF90CF900C9465
:10089000DA0360E087E00E94390264EF71E080E0F3
:1008A00090E00E9476030E943D032FB7F894809158
:1008B0004C0190914D01A0914E01B0914F012FBF7D
:1008C00080339141A105B10580F30E94EC021092A2
:1008D000550280E090E0AFE2B4E48093F50190939C
:1008E000F601A093F701B093F80183E290E00E9433
:1008F0001B0482E191E00C94C8030E94FA091F9244
:100900000F920FB60F9211242F933F934F935F9343
:100910006F937F938F939F93AF93BF93EF93FF93C7
:1009200085E591E00E945301FF91EF91BF91AF9156
:100930009F918F917F916F915F914F913F912F91F7
:100940000F900FBE0F901F9018951F920F920FB629
:100950000F9211242F938F939F93EF93FF93E09126
:100960006501F09166018081E0916B01F0916C016D
:1009700082FD12C0908180916E018F5F8F732091F4
:100980006F01821751F0E0916E01F0E0EB5AFE4FDB
:10099000958F80936E0101C08081FF91EF919F91AF
:1009A0008F912F910F900FBE0F901F9018951F924F
:1009B0000F920FB60F9211242F933F938F939F9313
:1009C000AF93BF9380914C0190914D01A0914E0146
:1009D000B0914F013091470123E0230F2D3720F4D0
:1009E0000196A11DB11D05C026E8230F0296A11D89
:1009F000B11D2093470180934C0190934D01A0932A
:100A00004E01B0934F018091480190914901A0910E
:100A10004A01B0914B010196A11DB11D809348017F
:100A200090934901A0934A01B0934B01BF91AF91BC
:100A30009F918F913F912F910F900FBE0F901F901C
:100A40001895E5E5F1E01382128288EE93E0A0E0CC
:100A5000B0E084839583A683B78384E091E091839B
:100A6000808385EC90E09587848784EC90E097877D
:100A7000868780EC90E0918B808B81EC90E0938B6B
:100A8000828B82EC90E0958B848B86EC90E0978B48
:100A9000868B118E128E138E148EE2EFF1E010927F
:100AA0004A021092490281E080934F0284E08093D1
:100AB000510289E081838AE080830895789484B527
:100AC000826084BD84B5816084BD85B5826085BD4A
:100AD00085B5816085BD80916E00816080936E00D8
:100AE00010928100809181008260809381008091CA
:100AF000810081608093810080918000816080937B
:100B000080008091B10084608093B1008091B0003A
:100B100081608093B00080917A00846080937A0035
:100B200080917A00826080937A0080917A0081605F
:100B300080937A0080917A00806880937A00109286
:100B4000C100E0916501F091660182E08083E0914F
:100B50006101F09162011082E0916301F091640102
:100B60008FEC808310926D01E0916901F0916A0130
:100B700086E08083E0916701F09168018081806167
:100B80008083E0916701F0916801808188608083B3
:100B9000E0916701F0916801808180688083E09135
:100BA0006701F091680180818F7D808384E191E00D
:100BB0000E94C8038CE191E00E94C8030E943D039B
:100BC0002FB7F89480914C0190914D01A0914E0166
:100BD000B0914F012FBF80369940A105B10580F338
:100BE0000E94EC021092550280E090E1AFE2B4E482
:100BF0008093F5019093F601A093F701B093F8016B
:100C00008FE191E00E94C8038CE191E00E94C8034B
:100C100061E087E00E94010360E087E00E94390202
:100C200060E08FE00E9401038FE00E94100221E04B
:100C3000892B09F420E0209350010E94B003811118
:100C40000E9449048FE00E941002892B39F460E071
:100C500087E00E9439020E94DD01EFCF0E94B003BD
:100C600081110E94490484E190E00E941B0482E10A
:100C700091E00E94C8038091F3010E94100281114B
:100C800003C00E94690202C0109254020E949700A1
:100C9000C0904502D0904602E0904702F090480292
:100CA000DC01CB018C199D09AE09BF09BC01CD0146
:100CB0000090510204C095958795779567950A94A1
:100CC000D2F70E94AB082091F5013091F6014091D6
:100CD000F7015091F8010E9408086B017C014B015B
:100CE0005C019B01AC010E94CD09882319F08AE3C5
:100CF00091E01AC026013701E89477F82FEF3FEF13
:100D00004FE75FE7C301B2010E94CD0981110FC017
:100D10002FEF3FEF4FE75FE7C301B2010E940308E7
:100D200018162CF48EE391E00E94C80374C02FEFD4
:100D30003FEF4FE75FE4C701B6010E945B09181659
:100D40001CF482E491E0F0CF2FEF3FEF4FE75FEC30
:100D5000C701B6010E94030887FDF3CF20E030E011
:100D6000A901C701B6010E94030887FF09C08DE2EF
:100D70000E948C0046015701B7FAB094B7F8B094BE
:100D80002AE037ED43EA5BE3C501B4010E9497070F
:100D90004B015C010E947A086B017C010E94A9084A
:100DA0009B01AC01C501B4010E9496074B015C0197
:100DB0004AE0C701B6010E94DA038EE20E948C006D
:100DC00020E030E040E251E4C501B4010E94600936
:100DD0004B015C010E947A086B01E12CF12C4AE086
:100DE000C701B6010E94DA03C701B6010E94A90833
:100DF0009B01AC01C501B4010E94960720E030E0E0
:100E000040E251E40E9460090E947A0880E090E08C
:100E10004AE00E94DA030E949700C0904502D090F9
:100E20004602E0904702F0904802DC01CB018C19A9
:100E30009D09AE09BF09BC01CD010090510204C05B
:100E400095958795779567950A94D2F70E94AB0898
:100E50002091F5013091F6014091F7015091F80190
:100E60000E9408086B017C0160935101709352014C
:100E7000809353019093540120E030E040EA51E424
:100E80000E945B0987FD16C020E030E04CE052E490
:100E9000C701B6010E94030887FF0CC061E087E02C
:100EA0000E94390282E191E00E94C80384E190E04F
:100EB0000E941B0420E030E04CE052E460915101BC
:100EC0007091520180915301909154010E945B09ED
:100ED00087FD1BC061E087E00E94390262E370E099
:100EE00080E090E00E94760360E087E00E94390293
:100EF00062E370E080E090E00E94760382E191E09E
:100F00000E94C80384E190E00AC060E087E00E948C
:100F1000390282E191E00E94C80380E090E00E94E3
:100F20001B048CE191E00E94C80395CE5058BB276A
:100F3000AA270E94AE070C9421090E94130938F0D9
:100F40000E941A0920F039F49F3F19F426F40C94FA
:100F500010090EF4E095E7FB0C940A09E92F0E94B2
:100F6000320958F3BA17620773078407950720F010
:100F700079F4A6F50C9454090EF4E0950B2EBA2FD3
:100F8000A02D0B01B90190010C01CA01A00111248F
:100F9000FF27591B99F0593F50F4503E68F11A163B
:100FA000F040A22F232F342F4427585FF3CF4695CC
:100FB00037952795A795F0405395C9F77EF41F16EE
:100FC000BA0B620B730B840BBAF09150A1F0FF0FB8
:100FD000BB1F661F771F881FC2F70EC0BA0F621FA4
:100FE000731F841F48F4879577956795B795F79594
:100FF0009E3F08F0B0CF9395880F08F09927EE0F29
:101000009795879508950E94E60808F481E0089571
:101010000E941C080C9421090E941A0958F00E9491
:10102000130940F029F45F3F29F00C940A0951118B
:101030000C9455090C9410090E94320968F3992305
:10104000B1F3552391F3951B550BBB27AA276217C4
:101050007307840738F09F5F5F4F220F331F441FD1
:10106000AA1FA9F335D00E2E3AF0E0E832D0915005
:101070005040E695001CCAF72BD0FE2F29D0660FF2
:10108000771F881FBB1F261737074807AB07B0E835
:1010900009F0BB0B802DBF01FF2793585F4F3AF03B
:1010A0009E3F510578F00C940A090C9455095F3F56
:1010B000E4F3983ED4F3869577956795B795F795C1
:1010C0009F5FC9F7880F911D9695879597F90895A9
:1010D000E1E0660F771F881FBB1F62177307840745
:1010E000BA0720F0621B730B840BBA0BEE1F88F754
:1010F000E09508950E943A0988F09F5798F0B92F1B
:101100009927B751B0F0E1F0660F771F881F991F3C
:101110001AF0BA95C9F714C0B13091F00E94540981
:10112000B1E008950C945409672F782F8827B85F91
:1011300039F0B93FCCF3869577956795B395D9F794
:101140003EF490958095709561957F4F8F4F9F4F9E
:101150000895E89409C097FB3EF4909580957095AA
:1011600061957F4F8F4F9F4F9923A9F0F92F96E9F3
:10117000BB279395F695879577956795B795F11168
:10118000F8CFFAF4BB0F11F460FF1BC06F5F7F4F05
:101190008F4F9F4F16C0882311F096E911C0772317
:1011A00021F09EE8872F762F05C0662371F096E820
:1011B000862F70E060E02AF09A95660F771F881FEF
:1011C000DAF7880F9695879597F90895990F000893
:1011D000550FAA0BE0E8FEEF16161706E807F90709
:1011E000C0F012161306E407F50798F0621B730BA4
:1011F000840B950B39F40A2661F0232B242B252B25
:1012000021F408950A2609F4A140A6958FEF811DC7
:10121000811D089597F99F6780E870E060E0089568
:101220009FEF80EC089500240A94161617061806FE
:101230000906089500240A941216130614060506DA
:101240000895092E0394000C11F4882352F0BB0F6B
:1012500040F4BF2B11F460FF04C06F5F7F4F8F4FCE
:101260009F4F089557FD9058440F551F59F05F3F09
:1012700071F04795880F97FB991F61F09F3F79F0B8
:1012800087950895121613061406551FF2CF46953A
:10129000F1DF08C0161617061806991FF1CF8695BC
:1012A0007105610508940895E894BB2766277727A0
:1012B000CB0197F908950E94E60808F48FEF08958E
:1012C0000E9473090C9421090E94130938F00E94AE
:1012D0001A0920F0952311F00C940A090C941009B6
:1012E00011240C9455090E94320970F3959FC1F3A3
:1012F000950F50E0551F629FF001729FBB27F00DC4
:10130000B11D639FAA27F00DB11DAA1F649F662718
:10131000B00DA11D661F829F2227B00DA11D621F67
:10132000739FB00DA11D621F839FA00D611D221F21
:10133000749F3327A00D611D231F849F600D211D05
:10134000822F762F6A2F11249F5750409AF0F1F088
:1013500088234AF0EE0FFF1FBB1F661F771F881FF1
:1013600091505040A9F79E3F510580F00C940A0916
:101370000C9455095F3FE4F3983ED4F38695779536
:101380006795B795F795E7959F5FC1F7FE2B880F97
:10139000911D9695879597F908950E94E608880B08
:1013A000990B0895A1E21A2EAA1BBB1BFD010DC0CB
:1013B000AA1FBB1FEE1FFF1FA217B307E407F50705
:1013C00020F0A21BB30BE40BF50B661F771F881FE1
:1013D000991F1A9469F760957095809590959B0177
:1013E000AC01BD01CF010895EE0FFF1F0590F491F0
:1013F000E02D099481E090E0F8940C94FF09F894B2
:02140000FFCF1C
:10140200000000007401DD000C01BB013D011B0165
:101412002F012000576169742E2E2E000D0A0053F1
:10142200746172747570202B207461726520697307
:1014320020636F6D706C657465006E616E00696E1D
:0614420066006F766600F3
:00000001FF
